:1000000015C02FC02EC02DC02CC02BC02AC029C0A7
:1000100028C027C026C025C059C023C022C0000D5B
:1000200032FFFC000E32FF00FF320E0011241FBE13
:10003000CFE5D2E0DEBFCDBF10E0A0E6B0E0EAED54
:10004000F3E002C005900D92A436B107D9F710E095
:10005000A4E6B0E001C01D92A339B107E1F789D051
:10006000BAC1CECF209166002F5F922F9F70215092
:10007000909366009EBB8DBB84E28CBB86E28CBBFA
:10008000E199FECF2EBB84E18CBB86E18CBB089549
:100090008EBB6DBB84E28CBB86E28CBBE199FECF4C
:1000A000089526B330E02095309521703070C90155
:1000B000089526B330E084E0369527958A95E1F7D8
:1000C0002095309521703070C90108951F920F92CC
:1000D0000FB60F9211242F933F934F935F936F931B
:1000E0007F938F939F93AF93BF93EF93FF938091F1
:1000F00065008F3F29F0809165008F5F80936500D8
:10010000809165008C3039F4B49902C081E002C05E
:1001100080916000A7DF369A3699FECF95B18FE3C4
:100120008EBB9DBB84E28CBB86E28CBBE199FECF8B
:1001300085B18D3758F4809167008F5F8093670099
:10014000893030F088B586958D5F88BD1092670044
:10015000FF91EF91BF91AF919F918F917F916F919F
:100160005F914F913F912F910F900FBE0F901F9075
:100170001895B0990DC0E4E2F0E0AAE8B0E003C041
:1001800084918D93319680E0E832F807C9F713C067
:10019000B49B05C0EFE1F0E0AAE8B0E011C0E8E2EE
:1001A000F0E0AAE8B0E003C084918D93319680E03E
:1001B000EC32F807C9F784E008C084918D9331963A
:1001C00080E0E432F807C9F785E08093880082E098
:1001D00087BB89EF88BB83E481BD789485B7877C32
:1001E000806285BF479A81E687B984EC86B981E24F
:1001F0008ABD81E083BF88E690E060E070E040E285
:1002000050E0D9D08091660001C08F5FE82FF0E008
:10021000E859FF4FE081EF3F19F48032B0F307C097
:1002200080936600803218F4E093600002C0109260
:1002300066008091600087FF14C0809160008F7716
:10024000809360008091600090918800891718F079
:1002500081E080936000809160008F5F891758F47F
:100260000BC0B09B02C0B49906C080916000813081
:1002700011F482E001C081E08068F4DEE09160006A
:10028000F0E0E757FF4FE081E0936300EB3F21F0A0
:10029000EC3F09F079C016C08FEF8093640040EA0C
:1002A0005CE828E730E08091640088BDCA010197CE
:1002B000F1F718BC88EB9BE0F9013197F1F7019752
:1002C000D9F7F1CF369A3699FECF45B18FEF88BD79
:1002D00080EC9DE50197F1F718BC80E29EE428E7E9
:1002E00030E0F9013197F1F70197D9F70EC058BD09
:1002F000CB010197F1F718BC88E59BE1F901319733
:10030000F1F70197D9F7455005C050E560E87BEB60
:1003100028E730E04E3758F780E197E228E730E0F1
:10032000F9013197F1F70197D9F78FEF88BD80EC8C
:100330009DE50197F1F718BC88E99AE328E730E0DA
:10034000F9013197F1F70197D9F78FEF80936400A6
:1003500085E08093610081E08093620040EA5CE880
:100360008091640088BDCA010197F1F718BC90E044
:1003700004C0CA010197F1F7922F80916100292FE3
:100380002F5F981768F7F5CF1092640020EC32E1E8
:100390000BC0809164008F5F809364008091640043
:1003A00088BDC9010197F1F7809164008E1788F329
:1003B000E8BD8895FDCFDC01CB01FC01E199FECFC2
:1003C00006C0FFBBEEBBE09A31960DB20D924150D4
:0A03D0005040B8F70895F894FFCFED
:0403DA0001010132EA
:00000001FF
