:100000000CC024C023C022C021C020C01FC01EC0FD
:1000100034C01CC0000A32FFFC0011241FBECFE90F
:10002000CDBF10E0A0E6B0E0E4E0F3E002C0059050
:100030000D92A436B107D9F710E0A4E6B0E001C0F4
:100040001D92A838B107E1F75DD05AC1D9CF2091F0
:1000500066002F5F922F9F712150909366009EBB88
:100060008DBB84E28CBB86E28CBBE199FECF2EBBBC
:1000700084E18CBB86E18CBB08951F920F920FB672
:100080000F9211242F933F934F935F936F937F931E
:100090008F939F93AF93BF93EF93FF9380916500EE
:1000A0008F3F29F0809165008F5F8093650080917C
:1000B00065008C3019F480916000C9DF369A36995A
:1000C000FECF85B18D3758F4809167008F5F8093A4
:1000D0006700893030F089B586958D5F89BD1092B3
:1000E0006700FF91EF91BF91AF919F918F917F91A9
:1000F0006F915F914F913F912F910F900FBE0F9095
:100100001F90189582E087BB89EF88BB83E481BD8F
:10011000789485B7877C806285BF479A81E687B9E6
:1001200084EC86B981E28FBD81E083BF88E690E0F0
:1001300060E070E040E250E0D4D08091660001C001
:100140008F5FE82FF0E0E859FF4FE081EF3F19F4AF
:100150008032B0F307C080936600803218F4E093D9
:10016000600002C01092660080916000813011F43E
:1001700092E001C091E08091600087FF12C0809101
:1001800060008F778093600080916000853018F068
:1001900081E080936000909160009F5F953008F04F
:1001A00091E0892F806853DFE0916000F0E0EC5E21
:1001B000FF4F2491209363002B3F21F02C3F09F047
:1001C00079C016C08FEF8093640040EA5CE828E7AE
:1001D00030E08091640089BDCA010197F1F719BC34
:1001E00088EB9BE0F9013197F1F70197D9F7F1CF4F
:1001F000369A3699FECF45B18FEF89BD80EC9DE5EB
:100200000197F1F719BC80E29EE428E730E0F9019C
:100210003197F1F70197D9F70EC059BDCB0101977E
:10022000F1F719BC88E59BE1F9013197F1F70197E6
:10023000D9F7455005C050E560E87BEB28E730E092
:100240004E3758F780E197E228E730E0F90131971F
:10025000F1F70197D9F78FEF89BD80EC9DE5019704
:10026000F1F719BC88E99AE328E730E0F901319702
:10027000F1F70197D9F78FEF8093640085E08093C1
:10028000610081E08093620040EA5CE88091640054
:1002900089BDCA010197F1F719BC90E004C0CA01F9
:1002A0000197F1F7922F80916100292F2F5F981706
:1002B00068F7F5CF1092640040E659E00BC08091DA
:1002C00064008F5F809364008091640089BDCA01DF
:1002D0000197F1F780916400821788F329BD889512
:1002E000FDCFA82F862FE82FE199FECF1FBA05C0BA
:1002F000EEBBE09AE3950DB20D924150C8F7089518
:04030000F894FFCF9F
:0403040001010132C0
:00000001FF
